:020000040800F2
:10000000D86A01202D460008ED1F0008EF1F0008E8
:10001000F11F0008F31F0008F51F00080000000092
:10002000000000000000000000000000F71F0008B2
:10003000F91F00080000000033D90008196C0008FF
:100040004746000847460008474600088F27000833
:10005000474600084746000847460008474600084C
:10006000474600084746000847460008474600083C
:10007000474600084746000847460008474600082C
:10008000474600084746000847460008474600081C
:10009000474600084746000847460008474600080C
:1000A00047460008474600084746000847460008FC
:1000B00047460008474600084746000847460008EC
:1000C00047460008474600084746000847460008DC
:1000D00047460008BF6E000891330008276F0008EC
:1000E00047460008474600084746000847460008BC
:1000F00047460008474600084746000847460008AC
:10010000474600084746000847460008474600089B
:10011000474600084746000847460008B93400082B
:10012000474600084746000847460008474600087B
:10013000474600084746000847460008474600086B
:10014000474600084746000847460008474600085B
:10015000474600084746000847460008474600084B
:10016000474600084746000847460008474600083B
:10017000474600084746000847460008474600082B
:10018000474600084746000800F002F800F0B6F8BD
:100190000AA090E8000C82448344AAF10107DA45E2
:1001A00001D100F0ABF8AFF2090EBAE80F0013F07E
:1001B000010F18BFFB1A43F00103184768E1000064
:1001C00088E1000010F8013B0A4413F0030408BF63
:1001D00010F8014B1D1108BF10F8015B641E05D01B
:1001E00010F8016B641E01F8016BF9D1002D15D0D8
:1001F00010F8014B03F00C030C2BA1EB04040ABF15
:1002000010F8013BA4EB8314A4EB032405F10103D4
:1002100014F8016B5B1E01F8016BF9D5914238BFF0
:1002200010F8013BD1D3704700230024002500269D
:10023000103A28BF78C1FBD8520728BF30C148BF49
:100240000B6070476E290CF0248270290BF09F8799
:1002500066290DF0FA8365290DF0F78367290DF003
:10026000F4836129AFF3008003681B0A28BF41F0C3
:10027000800169290BF0108764290BF00D8775291F
:100280000BF00A876F290CF01D8378290BF06B8720
:10029000E9290CF0B782E4290CF0B482F5290CF0BE
:1002A000B182EF290CF01A83F8290BF06A870368F2
:1002B000DB0928BF41F0800163290CF026827329F5
:1002C0000CF02B82E3290CF0D585F3290CF0DA85AC
:1002D000002070471FB50DF0B3FB0CF08DFE04003D
:1002E000002000210DF080FB401C606000200021F8
:1002F0000DF090FBE0601FBD10B510BD0CF057FE77
:100300001146FFF7E7FF01F0C2FC0CF035FF03B424
:10031000FFF7F2FF03BC06F0FDFC00000EB5DFF8AE
:1003200004844FF4847A0DF108090026FE4F00235F
:100330004D461A461946FD48CDF8009009F0D3FE07
:10034000FA48CDE90065534600220821543808F0E8
:10035000B5FC39690446491CF5A039610BF018FE5B
:100360002007E4D5D8F8240201285FD038690A288C
:100370005CD10023ED481A4619462C38009509F047
:100380005FF9EE4C0125C4F8A052C4F8A4626420C1
:1003900004F5287406F093FC26606560642006F07E
:1003A0008EFC25606660642006F089FC266065602E
:1003B000642006F084FCE248C0F8946201F081FFFA
:1003C00062220421202002F019F863220421322045
:1003D00002F014F864220421442002F00FF8652290
:1003E0000421562002F00AF84FF47A7006F067FCF8
:1003F000CD4808232530009080220221002002F001
:1004000021F84FF4FA6006F05AFCC84802AB00220B
:100410000221543808F079FEC44802AA00212C3881
:1004200009F03EFA02A9C7480AF0CFFDD8F8240225
:1004300001287FF47CAF3E6179E786B0DFF808934E
:10044000B94F0DF1140800264FF47A7A0023444680
:100450001A461946B548CDF8008009F044FED9F88F
:1004600018020028F2D00023B0481A4619462C384A
:10047000009409F0E5F803F086FFD0B101F021FF08
:10048000532203211C2001F0B9FF542203212E2006
:1004900001F0B4FF23220321402001F0AFFF24220A
:1004A0000321522001F0AAFFF87803F015FD504611
:1004B000B8E0A24C0125C4F8A052C4F8A46264209C
:1004C00004F5287406F0FBFB26606560642006F0E6
:1004D000F6FB25606660642006F0F1FB266065602F
:1004E000642006F0ECFB9648C0F89452F868642843
:1004F00063D206F04DF9F32006F087FB9349012003
:1005000005F0B3FC9249012005F037FC90480DF14D
:10051000040C8478437802788C4881788CE81E003B
:1005200041780091C3788BA19948FA680BF03CFDA3
:100530002023984A9648F96802F067F908B1FE60EE
:1005400072E093480BF018FDF8688021401CF860B9
:100550008F480BF0D5FF01F0B4FE53220421202078
:1005600001F04CFF54220421322001F047FF042205
:100570001146442001F042FF05220421562001F0DB
:100580003DFF504606F09BFB8348009008238022E5
:100590000221002001F056FF40F2DC5006F08FFBF4
:1005A00005A968480AF019FB604805AB0022042140
:1005B00054383E6108F0A9FD36E02020FE6002F0CC
:1005C0000BF901F07EFE042202211C2001F016FF2F
:1005D000052202212E2001F011FF0F2202214020CE
:1005E00001F00CFF10220221522001F007FF0E2221
:1005F0000421142001F002FF11220421262001F021
:10060000FDFE0E220421382001F0F8FE1222042102
:100610004A2001F0F3FE132204215C2001F0EEFEDB
:1006200041F2883006F04BFB404805AA00212C38E7
:1006300009F036F90AE790B0142105A80BF060FF25
:10064000142256490AA80BF007FF0024364F0DF17B
:100650003C090DF11408264640F2DC5A142006F03D
:100660002EFB02F06BFC30495220091D02F017FDF1
:10067000B87000234D461A4619462C48CDF8009014
:1006800009F031FD002329481A4619462C380095F7
:1006900008F0D6FFB878002842D12348143002F081
:1006A00015FDB8702048143002F084FD1E4B7870A0
:1006B00014335A1D0421602002F0B1FD1A49B870AC
:1006C0001F31042002F0EDFD1849B87028310420D4
:1006D00002F0CEFDB8701448001D4278017830A0B9
:1006E0000BF056FC35A00BF053FC0F493E70143153
:1006F000434638780A5C43F82020401CC0B238706A
:100700000528F6D33E700AA9387853F8202051F80E
:100710002050AA4200D1641C401CC0B2387055E081
:100720008FE000000000434200000020F03C002069
:1007300074696D65733D25640D0A000000804242B6
:100740000000424268DC002000004042443A0020A1
:10075000403A00205B253033645D323025303278FA
:100760002F253032782F25303278202025303278EE
:100770003A253032783A253032782066696E6765DE
:10078000727072696E7420756E6C6F636B0D0A0007
:100790005C3B0020000001082504002050DA00081E
:1007A000636172645F707964656275663A253032A0
:1007B0005820253032580D0A000000006361726431
:1007C0005F6E756D6265726275663A0005289BD32F
:1007D0007978F1A00BF0DCFBB978F4A00BF0D8FB32
:1007E000F6A00BF0D5FBF94D3E703878295CF8A0E7
:1007F0000BF0CEFB3878401CC0B238700828F4D318
:10080000AFF2CC000BF0C4FBF349F0480BF0A0FEB4
:1008100008B9052C1CD001F054FDF0A204211220CF
:1008200001F0D4FD23220421442001F0E7FD24221D
:100830000421562001F0E2FD504606F040FA01F096
:1008400040FDE2480FAA0021543809F029F805E7D5
:10085000E44C0125C4F8A052C4F8A462642004F555
:10086000287406F02CFA26606560642006F027FAEA
:1008700025606660642006F022FA266065606420C8
:1008800006F01DFAD848C0F89452F868002464288D
:1008900065D205F07DFFF32006F0B7F9D3490120BA
:1008A00005F0E3FAD249012005F067FAD0480DF1CE
:1008B000040C857843780278CC4881788CE82E0047
:1008C00041780091C378CBA1D848FA680BF06CFB53
:1008D0002023D74AD548F96801F097FF08B1FE6098
:1008E000AFE7D2480BF048FBF8688021401CF86065
:1008F000CE480BF005FE01F0E4FCB8A20421242050
:1009000001F064FD04221146442001F077FD052228
:100910000421562001F072FD4FF47A7006F0CFF9F1
:10092000C4480090082380220221002001F08AFDA3
:10093000504606F0C4F90FA9BF480AF04EF9A34883
:100940000FAB002204217C383E6108F0DEFB9F489B
:100950000BF012FD01469D480BF0D2FD71E72020FF
:10096000FE6001F039FF01F0ACFC042202211C20E2
:1009700001F044FD052202212E2001F03FFD0F224F
:100980000221402001F03AFD10220221522001F004
:1009900035FD0E220421142001F030FD1122042126
:1009A000262001F02BFD0E220421382001F026FD27
:1009B000122204214A2001F021FD132204215C208F
:1009C00001F01CFD41F2883006F079F939E796B064
:1009D0003C2105A80BF094FDDFF8FCA105AD002635
:1009E000AAF11F0A40F2DC5B0DF150087748CDE90F
:1009F0000068002215AB1146AC3809F020F95FEA17
:100A000000097DD0BDF854000028FAD08BA14846DB
:100A10000BF09EFD10B98AA00BF0BAFA89A14846E6
:100A20000BF096FD00286CD105A80BF0A5FC014643
:100A300005A80BF065FD002414A983480AF0C5FA47
:100A40000023624847461A4619462838CDF80080E8
:100A500009F049FB00235D481A46194654380097AF
:100A600008F0EEFD01F02DFC1A220021122001F009
:100A7000C5FC1B220021242001F0C0FC1C22002107
:100A8000362001F0BBFC14220021482001F0B6FC06
:100A9000152200215A2001F0B1FC6CA20421122081
:100AA00001F094FC6CA20621002001F08FFC1D22B5
:100AB00006210E2001F0A2FC1E2206211C2001F0BE
:100AC0009DFC66A206212A2001F080FC1F2206213F
:100AD000382001F093FC20220621462001F08EFCF4
:100AE0005FA20621542001F071FC21220621622020
:100AF00001F084FC22220621702001F07FFC01E03D
:100B00004EE36FE102F06FF8012817D004281ED0E1
:100B1000072825D002282CD0052834D0082833D027
:100B200080B3032831D0062830D009282FD00B28D5
:100B30002ED00C282DD00D282CD043E23120285562
:100B4000641C04EBC4004006000E46A2BEE0342044
:100B50002855641C04EBC4004006000E42A2B5E018
:100B600037202855641C04EBC4004006000E3FA249
:100B7000ACE032202855641C04EBC4004006000E93
:100B80003BA2A3E088E075E07DE08EE096E0A1E086
:100B9000A9E0ABE0B7E00000636172645F73697A5B
:100BA000653D25644B626974730D0A00737461744A
:100BB00075733A253032580D0A0000006361726483
:100BC0005F726561646275663A000000183D00203E
:100BD00025303258200000001F00002052464944B2
:100BE000000000000080424200004242443A0020DF
:100BF000403A00205B253033645D32302530327856
:100C00002F253032782F2530327820202530327849
:100C10003A253032783A25303278205246494420FD
:100C2000756E6C6F636B0D0A000000005C3B00206A
:100C3000000001082504002068DC002041000000BD
:100C4000410D0A0042000000E0BA00202D2D2D2D9C
:100C50002D2D2D2D2D2D2D00233A0000433A00007F
:100C6000443A00003100000034000000370000006A
:100C70003200000035202855641C04EBC4004006F7
:100C8000000EFEA222E038202855641C04EBC400AC
:100C90004006000EFAA219E030202855641C04EB2F
:100CA000C4004006000EF7A210E033202855641C53
:100CB00004EBC4004006000EF3A207E036202855DE
:100CC000641C04EBC4004006000EF0A2022101F0F7
:100CD0007DFB77E139202855641C04EBC4004006F5
:100CE000000EEBA2F2E701F0ECFA14E114AA0021E5
:100CF000E84808F0D5FD05A80BF03EFB014605A825
:100D00000BF0FEFB6AE0E44A01215446DAF80800E1
:100D100001F09AFDA0680BF009FB0746A068DFA16F
:100D2000066005A801F09DFD05A80BF0FFFA8742BB
:100D30007ED1DB4C0127C4F8A072C4F8A462642001
:100D400004F5287405F0BBFF26606760642005F099
:100D5000B6FF27606660642005F0B1FF266067601B
:100D6000642005F0ACFFCF48C0F89472DAF80C00AC
:100D7000544664287CD205F00BFDF32005F045FFB6
:100D8000C949012005F071F8C849012004F0F5FFB8
:100D9000C6480DF1040C877843780278C248817800
:100DA0008CE88E0041780091C378C1A1CF48E268F9
:100DB0000BF0FAF82023CE4ACC48E16801F025FD7B
:100DC000B8B1E66005A80BF0D7FA014605A80BF00C
:100DD00097FB14AA0021AF4808F062FD14A9C5488A
:100DE00009F0FBFEC4A148460BF0B2FB002878D006
:100DF000D6E1BE480BF0C0F8E0688021401CE060FE
:100E0000BA480BF07DFB01F05CFA1422042120208B
:100E100001F0F4FA15220421322001F0EFFA042245
:100E20001146442001F0EAFA05220421562000E090
:100E300058E001F0E3FA4FF47A7005F040FFAF4854
:100E40000090082380220221002001F0FBFA58467E
:100E500005F035FF14A9AA4809F0BFFE8D4814AB70
:100E6000002204212838266108F04FF9AAE7FFE79D
:100E70002020CAF80C6001F0AFFC01F022FA042235
:100E800002211C2001F0BAFA052202212E2001F0D5
:100E9000B5FA0F220221402001F0B0FA10220221FF
:100EA000522001F0ABFA0E220421142001F0A6FA20
:100EB00011220421262001F0A1FA0E22042138205B
:100EC00001F09CFA122204214A2001F097FA132221
:100ED00004215C2001F092FA41F2883005F0EFFE27
:100EE00070E72FE101F0EDF914220421202001F038
:100EF00085FA15220421322001F080FA23220421F0
:100F0000442001F07BFA24220421562001F076FAD5
:100F1000584605F0D4FE1A220021122001F06EFA84
:100F20001B220021242001F069FA1C220021362016
:100F300001F064FA14220021482001F05FFA152222
:100F400000215A2001F05AFAAFF200320421122097
:100F500001F03CFAAFF200320621002001F036FA2F
:100F60001D2206210E2001F049FA1E2206211C2016
:100F700001F044FAAFF21C3206212A2001F026FAD1
:100F80001F220621382001F039FA202206214620AE
:100F900001F034FAAFF238320621542001F016FA8B
:100FA00021220621622001F029FA22220621702046
:100FB00001F024FA05A80BF0DFF9014605A80BF0B3
:100FC0009FFA002405A80BF0D7F906287FF697AD05
:100FD00001F077F914220421202001F00FFA1522E4
:100FE0000421322001F00AFA2F220421442001F0CA
:100FF00005FA30220421562001F000FA4FF4FA607D
:1010000005F05DFE01F05DF91A220021122001F0C9
:10101000F5F91B220021242001F0F0F91C22002107
:10102000362001F0EBF914220021482001F0E6F906
:10103000152200215A2001F0E1F9AFF2F03204212B
:10104000122001F0C3F9AFF2F0320621002001F0C6
:10105000BDF91D2206210E2001F0D0F91E22062125
:101060001C2001F0CBF9AFF20C4206212A2001F03E
:10107000ADF91F220621382044E0000035000000B1
:10108000380000003000000033000000360000008F
:1010900039000000C43C00200000040823000000C8
:1010A0000080424200004242443A0020403A002080
:1010B0005B253033645D3230253032782F25303275
:1010C000782F253032782020253032783A2530327A
:1010D000783A253032782070617373776F726420AC
:1010E000756E6C6F636B0D0A000000005C3B0020A6
:1010F00000000108E0BA00204300000025040020A1
:1011000068DC002001F07AF920220621462001F057
:1011100075F9AFF2B4420621542001F057F92122AB
:101120000621622001F06AF922220621702001F0D6
:1011300065F905A80BF020F9014605A80BF0E0F9C8
:101140000024DCE414A9FE4809F03FFF14A9FD487F
:1011500009F03BFF002344461A461946FA48CDF8E9
:10116000008008F0C0FF0023F7481A4619462C38C3
:10117000009408F065FA01F0A4F81CE001F0A9FD64
:10118000012813D002285AD00328F7D1EE4814AA18
:1011900000212C3808F084FB14A9EA4809F01DFD51
:1011A000BDF8541048460BF089F91FE4E7A00AF097
:1011B000EFFE02F0E7FEE6A20221142001F006F99C
:1011C00051220221262001F019F952220221382051
:1011D00001F014F9532202214A2001F00FF95422A0
:1011E00002215C2001F00AF9AFF290520421142090
:1011F00001F0ECF85C220421262001F0FFF85D22CA
:101200000421382001F0FAF8532204214A2001F089
:10121000F5F8542204215C2001F0F0F8AFF2C0523E
:101220000621142001F0D2F821220621262001F007
:10123000E5F822220621382001F0E0F89EE7C5A05B
:101240000AF0A6FE03F0C4F8B5E70A2005F037FD62
:1012500001F003FCF9E78EB00024BF4FA0460CAEAE
:101260004FF48479B848CDE900864B460022072127
:10127000543807F023FD05460023B3481A461946A3
:101280002C38009608F0DCF9002D7DD001F019F81B
:10129000B249012004F071FDB04881780091437893
:1012A0000278AFA102A80AF07FFEB149012004F044
:1012B000DCFDAF48817800914378C278ADA107A8E2
:1012C0000AF072FE06220021122001F097F8072290
:1012D0000021242001F092F808220021362001F09C
:1012E0008DF809220021482001F088F8052200210C
:1012F0005A2001F083F8AFF2B4620621002001F019
:1013000065F8142206210A2001F078F8152206213A
:10131000172001F073F804220621242001F06EF852
:1013200005220621312001F069F8AFF234220621AE
:101330003E2001F04BF853220621482001F05EF8D0
:1013400054220621552001F059F86022062162201E
:1013500001F054F8612206216F2001F04FF802AA33
:101360000421362001F032F807AA0221302001F0D2
:101370002DF804231E2202210020009701F062F8BC
:1013800005220421002000E043E001F037F80322A9
:1013900004210F2001F032F80D2204211E2001F05B
:1013A0002DF8A80701D4012C16D1012404231E22F4
:1013B00002210020009701F045F8052204210020B9
:1013C00001F01CF8032204210D2001F017F80D2272
:1013D00004211C2001F012F8680701D4022C18D156
:1013E0005D4802243C30009004231E222146002048
:1013F00001F028F80E220421002000F0FFFF042253
:1014000011460D2000F0FAFF052204211C2000F0F7
:10141000F5FF0CAA00214C4808F0A2FF4A480CAA8C
:1014200000212C3808F03CFA1CE7A8B0802105A860
:101430000BF066F8DFF850B1DFF85081002625ACDC
:101440004148CDE90064002226AB1146E43808F09B
:10145000F6FB002382461A4619463B48009408F0E2
:1014600042FE002338481A4619462C38009408F0EA
:10147000E7F8BAF1000FE2D0BDF898000028DED0FE
:1014800025A9304809F0A1FD41A150460AF062FFAC
:10149000002850D00125CBF8A052CBF8A4626420DC
:1014A0000BF5287405F00BFC26606560642005F0E0
:1014B00006FC25606660642005F001FC266065601E
:1014C000642005F0FCFB3448C0F8946233A005F0BA
:1014D000BBFC00F0F6FE00220421202000F08EFF6D
:1014E00001220421322000F089FF0222042144203D
:1014F00000F084FF03220421562000F07FFF4FF408
:101500007A7005F0DCFB214808232530009080220A
:101510000221002000F096FF4FF4FA6005F0CFFBA7
:1015200025A9074809F051FD074825AB00220221F3
:10153000543807F0EAFD1DA150460AF00BFF39E0D0
:1015400068DC0020E0BA0020F03C0020310D0A00E9
:10155000423A0000320D0A0025080020403A0020DF
:10156000253032783A253032783A2530327800000A
:10157000443A00203230253032782F253032782F0F
:101580002530327800000000008042420000002038
:101590006C6F636B00000000000042426C6F636B75
:1015A0002020737563636573730D0A006F70656E39
:1015B0002D000000002879D0AFF20C0150460AF04F
:1015C000C3FEAFF2140100200AF0BEFE8246AFF265
:1015D00034510AF0BDFF00286AD050460AF0A6FE3A
:1015E0008146FE4A01214446D8F8080001F02CF952
:1015F000A0680AF09BFE0546A0684D45066054D1E0
:101600000127CBF8A072CBF8A46264200BF52874F4
:1016100005F055FB26606760642005F050FB2760ED
:101620006660642005F04BFB26606760642005F06F
:1016300046FBEB48C0F89472D8F80C0064287DD2C1
:1016400005F0A6F8F32005F0E0FAE649012004F0E1
:101650000CFCE549012004F090FBE34CE14FA3783A
:10166000B878627821788DE80F007B78FA78DFA16E
:1016700005A80AF099FCA37862782178B8780DF172
:10168000040C44468CE80F0078780090FB78E6A1C3
:10169000F448D8F80C200AF087FC2023F24AF148DD
:1016A000E16801F0B2F828B1E6607FE083E0FFE78F
:1016B000EEA07EE0EB480AF05FFC05A805F0C4FB55
:1016C000E0688021401CE060E6480AF019FF8021B4
:1016D00005A80AF015FF00F0F4FD002204212020E7
:1016E00000F08CFE01220421322000F087FE04224B
:1016F0001146442000F082FE05220421562000F00D
:101700007DFE4FF47A7005F0DAFAE0480090082385
:1017100080220221002000F095FE40F2DC5005F00E
:10172000CEFA25A9DA4809F058FA25AB002204219F
:10173000D848266107F0E9FC38E0FFE72020C8F828
:101740000C6001F049F800F0BCFD042202211C20CD
:1017500000F054FE052202212E2000F04FFE0F2241
:101760000221402000F04AFE10220221522000F007
:1017700045FE0E220421142000F040FE1122042117
:10178000262000F03BFE0E220421382000F036FE19
:10179000122204214A2000F031FE132204215C2091
:1017A00000F02CFE41F2883005F089FA4D4502D058
:1017B000B9A005F049FBBCA150460AF0CBFDE0B151
:1017C000A94D00242A462146A64801F03DF895A1DE
:1017D000A4480AF0BFFD48B1A24805F035FB8021BE
:1017E000A0480AF08DFE641C642CEBD32CB9B0A089
:1017F0000AF0CEFBB4A005F027FBB8A150460AF0D2
:10180000A9FD00285BD0AFF2582150460AF09CFD9C
:101810004446AFF26421C8F8080000200AF094FDA5
:10182000AFF28871A0600AF093FE10B9ADA005F088
:101830000BFBAFF29871A06801F013F8A0680AF0F2
:101840009BFD062803D9AFA005F0FEFA37E004F0AF
:101850009FFFF32005F0D9F9302000F0BDFF3023C1
:101860005E4A0121A06800F0D0FF40BBACA005F0AB
:10187000EBFA00F026FD142204210A2000F0BEFD40
:10188000152204211C2000F0B9FD162204212E206F
:1018900000F0B4FD17220421402000F0AFFD182213
:1018A0000421522000F0AAFD19220421642000F036
:1018B000A5FD4FF4FA6005F002FAA0680660BDF8D5
:1018C000981050460AF0FAFD724825AA00212830E7
:1018D00007F0E6FF25A9984809F07FF9AFE57CB548
:1018E00001A96B4809F071FB01A800900023694829
:1018F0001A461946283007F0A3FE924C8FA03023D9
:10190000364A0121A06000F080FFA068002101603C
:101910008DA00AF03DFB4FF448756E100BE0304689
:1019200005F0CDF98EA00AF033FB284605F0C7F983
:1019300090A00AF02DFB944802F03DFA0028EED169
:1019400092A00AF025FB944802F005FAE07008B175
:1019500002F0C2FA914801F0DFFFE07000283BD0AE
:1019600002F0BAFA00F0ADFC25220221202000F09E
:1019700045FD26220221322000F040FD27220221CF
:10198000442000F03BFD28220221562000F036FDC5
:1019900006220421172000F031FD0722042129200E
:1019A00000F02CFD082204213B2000F027FD092235
:1019B00004214D2000F022FD052204215F2000F0CB
:1019C0001DFD292206210A2000F018FD2A220621E9
:1019D0001C2000F013FDE3E04FE1000000000408CC
:1019E00000004242443A0020403A00203230253084
:1019F00032782F253032782F25303278202025304C
:101A000032783A253032783A2530327820426C7577
:101A100065746F6F7468206F70656E207375636393
:101A20006565640D0A0000005B253033645D32306B
:101A3000253032782F253032782F2530327820200B
:101A4000253032783A253032783A253032782042C3
:101A50006C7565746F6F746820756E6C6F636B0D59
:101A60000A0000005C3B002000000108546865206B
:101A700070617373776F72642063616E6E6F742030
:101A8000626520656D7074790D0A000025040020E0
:101A900068DC00209C3C002070617373776F726477
:101AA000206572726F720000696E717569726500EF
:101AB0005468657265206973206E6F207265636F6C
:101AC00072640D0A00000000546865726520697335
:101AD000206E6F207265636F726400007365742DF1
:101AE000000000005468652070617373776F726442
:101AF0002063616E6E6F7420626520656D7074790D
:101B00000000000053657420746865207061737371
:101B1000776F726420746F6F206C6F6E67000000C7
:101B20007365745F70617373776F7264207375632C
:101B30006365656400000000E0BA00203132333490
:101B40003536000000000020D3EB4153363038C456
:101B5000A3BFE9CED5CAD62E2E2E2E0D0A00000028
:101B6000CEB4BCECB2E2B5BDC4A3BFE92121210DC6
:101B70000A000000B3A2CAD4C1B4BDD3C4A3BFE954
:101B80002E2E0D0A000000006C3A0020CDA8D1B620
:101B9000B3C9B9A600000000703A002058F0002038
:101BA000AFF6DC7206212E2000F010FC0A2206217E
:101BB000402000F023FC0B220621522000F01EFCE6
:101BC0000C220621642000F019FC4FF47A6005F025
:101BD00076F800F076FBB9480090082380220221B5
:101BE000002000F02FFC4FF47A74204605F067F8CF
:101BF000B3480090082380220221002000F022FC3C
:101C0000204605F05CF8AF480090082380220221AE
:101C1000002000F017FC284605F051F8AA48009073
:101C2000082380220221002000F00CFC204605F051
:101C300046F8A6480090082380220221002000F0E8
:101C400001FC40F2DC5005F03AF8A148009008236E
:101C500080220221002000F0F5FB40F6B83005F0AC
:101C60002EF800F02EFB01AA00219A4807F018FE7A
:101C700001A9002008F04BFD7CBD97489749827868
:101C800000880988411A96A00AF082F96AE68AB0AB
:101C900004F0D0FF4FF4E13005F044F84FF4165053
:101CA00005F08BF800F068FA05F0E2F800F0E9FBC7
:101CB00000F007FB00F04CFE01F040F901F04AFB98
:101CC0004FF4614001F08BFB01F03AFC02F094FC10
:101CD00005F0DFF84FF4407002F0C8FC002004F07B
:101CE00063FB49F69914A04206D000F095FC21460A
:101CF000002004F051FB01E000F0F8FC04F048FD86
:101D0000F32004F082FF202000F066FD09A806F011
:101D1000A2FA002409AD059406944FF00C0A774A04
:101D2000CDE9074503208DE805044FF080092346DF
:101D3000AFF255426748CDE9039471A1683008F0CD
:101D40002EFC05946627734806944FF48066CDE90F
:101D500007454FF005080023AFF63112CDF800809B
:101D6000CDE90107CDE903646BA1C43808F017FC85
:101D7000059406941921CDE907454FF0040B694AF3
:101D8000CDF800B0CDE90121B0100023AFF6393213
:101D9000CDE90304634864A1C43808F000FC05944D
:101DA000634ACDF808A00694CDE90745CDE9008245
:101DB0000023AFF669325E48CDE903945DA1C438D3
:101DC00008F0EDFB05940694CDE907455B48CDF896
:101DD0000080CDE90107CDE903640023584A59A1E9
:101DE000C43808F0DCFB05940694CDE907454FF0B4
:101DF00006085648CDF80080CDE90107CDE9036417
:101E00000023534A53A1C43808F0C9FB0594069433
:101E1000CDE907455148CDF80080CDE90107CDE96E
:101E2000036400234E4A4FA1C43808F0B8FB059460
:101E30000694CDE907454D48CDF800B0CDE901073E
:101E4000CDE9036400234A4A4AA1C43808F0A7FB3D
:101E5000204809AB102249A1E83807F002FE1D48CE
:101E600009AB102249A1B83807F0FBFD194809ABAE
:101E700010224AA1883807F0F4FD164809AB102259
:101E800049A1583807F0EDFD124809AB002249A1DD
:101E9000283806F050FE09AA49A10E4807F0EBFACF
:101EA0000C4809AB01224AA12C3008F064F84AA082
:101EB0000AF06EF809A806F023FBFEE79D1C00203F
:101EC0009D0800209D0C00209D1000209D140020E6
:101ED0009D180020C43C002058F00020703A0020DB
:101EE000BFE2C8DDC1BF3A25642020202020B6D43F
:101EF000B1C8B5C8BCB63A2025640000F03D00204A
:101F0000737461727475705F696E69745F54434273
:101F100000000000B4400020626C7565746F6F743F
:101F200068000000785100205461736B320000009B
:101F30007C8A00205461736B33000000409B0020BA
:101F4000CF0900085461736B34000000A4BB00206B
:101F5000370600085461736B3500000068CC002020
:101F60003B0400085461736B360000002CDD002038
:101F70001D0300085461736B3700000075736172B4
:101F800074315F717565756500000000757361726D
:101F900074335F7175657565000000007266696471
:101FA0005F717565756500006B65795F7175657545
:101FB00065000000675F666C61675F6772700000B4
:101FC000675F6D757465785F6F6C65640000000015
:101FD000675F73656D0000006E65766572207275CF
:101FE0006E2E2E2E2E2E2E2E0D0A00007047FEE78E
:101FF000FEE7FEE7FEE77047704700000CB50022E1
:10200000544900920192086840F4803008604FF40F
:10201000A043086800F4003001900098401C009034
:10202000019810B900989842F3D10868800334D51C
:102030000120019047484030026842F0805202601F
:102040004548026842F44042026042480830026853
:102050000260026842F400420260026842F4A05248
:102060000260031F3D4A1A600A6842F080720A60EB
:102070000A689201FCD53A4940F205720A6001688B
:1020800021F003010160016841F002010160016873
:10209000C1F381010229FAD10CBD01920CBD314876
:1020A00010B5016841F4700101602A48016841F0EF
:1020B00001010160274A00210832116002682A4BA1
:1020C0001A400260031D294A1A60026822F4802225
:1020D000026020480C300160FFF790FF21494FF06B
:1020E00000608039086010BD70B51A4D0835286849
:1020F0001F4B204910F00C0004D05E10042803D0C0
:10210000082803D00B601BE00E6019E0114A121D75
:102110001068C0F38054106800F03F0014B1B6FBA3
:10212000F0F001E0B3FBF0F013681268C3F388131A
:102130005843C2F30142521C5200B0FBF2F0086057
:1021400028680C4AC0F30310121D105C0A68C240D4
:102150000A6070BD0038024000700040085440071B
:10216000003C024088ED00E0FFFFF6FE1030002446
:102170000024F400A02000202DE9FC47012130209C
:1021800002F03BFD01248DF8044000268DF8066026
:102190000327DFF850904FF4C0658DF80570009567
:1021A0008DF807406946484602F024FB8DF804404C
:1021B0008DF806608DF805708DF807400A4C4FF4D5
:1021C000C048CDF800806946204602F013FB29463E
:1021D000484602F074FB4146204602F070FBBDE821
:1021E000FC87000000140240001002402DE9F05F5F
:1021F000FE4C054600294FF04001204602D002F077
:102200005EFB01E002F05DFB8021A146204602F06A
:1022100058FB0024DFF8D8B3F64E27464FF4807AF7
:102220004FF00108C6F8987228065146584602D564
:1022300002F045FB01E002F044FBC6F89882680614
:10224000641C050EE4B2082CECD380214C464846B1
:1022500002F035FB2046BDE8F05F402102F02FBBC5
:1022600010B50446B031C8B20021FFF7BFFF1020FF
:1022700040EA14100021FFF7B9FF04F00F00BDE899
:10228000104040F001000021B0E710B500218D2082
:10229000FFF7ACFF00211420FFF7A8FF0021BDE8E5
:1022A0001040AF20A2E710B500218D20FFF79EFF60
:1022B00000211020FFF79AFF0021BDE81040AE205A
:1022C00094E770B5002505F1B000C0B20021FFF71A
:1022D0008DFF00210846FFF789FF00211020FFF73E
:1022E00085FF002401210020FFF780FF641CE4B279
:1022F000802CF7D36D1CEDB2082DE4D370BD2DE911
:10230000F041203A00240F468046D5B27F2803D9F9
:1023100000208F1C8046FFB23946FFF7A1FFB64E62
:1023200004EB05100121305CFFF760FF641CE4B290
:10233000082CF5D37F1CF9B24046FFF791FF00242B
:1023400004EB051030440121007AFFF74FFF641CB5
:10235000E4B2082CF4D3BDE8F0810346012000E08C
:102360005843491EC9B2FBD270472DE9F047804659
:10237000002708981D4691468A463C46460821E0BB
:10238000281B401EC1B20A20FFF7E7FFB9FBF0F09F
:102390000A21B0FBF1F201FB120027B9691E8C4241
:1023A00001DA30B101273030C2B206FB0480C0B27E
:1023B00003E006FB0480C0B220225146FFF79FFFD6
:1023C000641CE4B2AC42DBD3BDE8F0872DE9F041F8
:1023D00017460E46044600250CE031462046FFF71E
:1023E0008EFF0834E4B2782C02D90024B61CF6B271
:1023F0006D1CEDB27A5D002AEFD1ACE72DE9F0411A
:1024000015460E460746FFF72BFF7C48002400EBDD
:1024100085150121285DFFF7E9FE641CE4B2102C4C
:10242000F7D3761CF1B23846FFF71AFF00242819BB
:10243000012190F82000FFF7D9FE641CE4B2102CB3
:10244000F5D388E72DE9F0471F4690460E468246B1
:102450000025DDF8209011E031465046FFF700FFDF
:10246000544607E019F8050001216D1CFFF7BEFE78
:10247000641CE4B24445F5D3761CF6B2BE42EBD3FD
:10248000A2E72DE9F0410121042002F0B6FB012171
:10249000082002F0B2FB594C4FF41460083C0125AF
:1024A000206025710027DFF84881E77103266671F7
:1024B0002146404602F09EF9C02020602571E77158
:1024C00066712146494802F095F94D48C0F8985286
:1024D000C0F89C524748C0F89852C0F8A052C0F8C3
:1024E000AC52EC022146404602F0E9F9642004F0C7
:1024F000E6FB2146404602F0E4F9642004F0DFFBED
:102500002146404602F0DBF90021AE20FFF76EFEC7
:1025100000210846FFF76AFE00211020FFF766FE43
:1025200000214020FFF762FE00218120FFF75EFEC0
:102530000021CF20FFF75AFE0021A120FFF756FE11
:102540000021C820FFF752FE0021A620FFF74EFE13
:102550000021A820FFF74AFE00213F20FFF746FE9A
:102560000021D320FFF742FE00210846FFF73EFE80
:102570000021D520FFF73AFE00218020FFF736FE2C
:102580000021D920FFF732FE0021F120FFF72EFEB7
:102590000021DA20FFF72AFE00211220FFF726FE95
:1025A0000021DB20FFF722FE00214020FFF71EFE66
:1025B00000212020FFF71AFE00210220FFF716FE5F
:1025C00000218D20FFF712FE00211420FFF70EFEE0
:1025D0000021A420FFF70AFE0021A620FFF706FE37
:1025E0000021AF20FFF702FE00210BE0000C0240AB
:1025F000000802400000414264DA0008BC200020CC
:1026000000804142AF20FFF7F1FDFFF75AFEBDE821
:10261000F0410021084623E670B50121080702F0C9
:102620000AFB012003F0FCFF012002F0E9F9612020
:1026300002F0A2F90028FAD04FF4007002F08BFAF1
:10264000012002F09DFA03F049FA60487F2100243E
:102650004160FF210460816003F0DBFA5C482021C7
:10266000C170042141701021817005210170014663
:10267000012003F0ACFB56484021001FC1700470DC
:102680003221417084700146012003F026FB0020B6
:1026900003F00DFD042003F0E9FC002003F0F7FC3B
:1026A000012003F004FD0121880303F0CAFE4FF46A
:1026B000806003F0EFFE4FF48005284603F09BFF97
:1026C00043490820091D0D600C71487101258D7169
:1026D000084603F037FF3E48032108380170447074
:1026E0008470C570BDE8704001F0C5BF70B50121B0
:1026F000080702F0A0FA012003F092FF012002F087
:102700007FF9612002F038F90028FAD04FF4007008
:1027100002F021FA012002F033FA03F0DFF92B482E
:102720007F2100244160FF210460816003F071FA81
:10273000002003F0BCFC042003F098FC002003F010
:10274000A6FC012003F0B3FC0121880303F079FE0D
:102750004FF4806003F09EFE4FF48005284603F09E
:102760004AFF1B490820091D0D600C7148710125A5
:102770008D71084603F0E6FE154803210838017004
:1027800044708470C570BDE8704001F074BF38B506
:1027900005F0DDFD4FF48044204603F087FE01285C
:1027A00011D16B46002201210A4806F0AEFC6B46AF
:1027B00000220821074806F0A8FC204603F08DFE01
:1027C000200203F018FF05F0CDFD38BD2CED0020F0
:1027D000443A00209C3C002010B5044603F0D8FF8A
:1027E00021463AA009F0D4FB0221204604F00FF85C
:1027F000092804D0BDE810403CA009F0C9BB21461F
:10280000BDE810403DA009F0C3BB2DE9F04102EB4B
:1028100081149846074604F14006002510E07959D6
:10282000204604F0CCF8092808D03CA009F0B0FB01
:102830004046FFF7D1FF0120BDE8F081241D2D1D8A
:10284000B442ECD30020F7E702EB811110B501F19F
:102850004003002202E010C98450121D9942FAD3AD
:1028600010BD2DE9F04395B088460746002650215B
:10287000684609F045FE0025E94616E0002405E01B
:10288000795D18F80400814205D0641C404609F0C7
:1028900073FDA042F4D8404609F06EFDA04203D873
:1028A000795D09F80610761C6D1C384609F064FD48
:1028B000A842E3D85021384609F000FE3246694666
:1028C000384609F084FD15B0BDE8F083464C41530D
:1028D000485F4572617365536563746F7220256844
:1028E000642073746172740D0A0000004572617394
:1028F00065206572726F720D0A000000464C4153EC
:10290000485F4572617365536563746F7220256813
:102910006420656E64730D0A00000000666C6173CC
:1029200068207772697465207265636F72642066CF
:1029300061696C2C6E6F7720676F746F20657261B0
:10294000736520736563746F72210D0A00000000C7
:102950002DE9F0410121084602F04FF90121022042
:1029600002F04BF90121042002F047F90121102067
:1029700002F043F90121402002F03FF9E84C8027A2
:102980000125276025710220E64EE0712146304680
:1029900001F030FF1020DFF8908320602146404690
:1029A00001F028FFE80320602146E04801F022FF03
:1029B0002760DF4F2146384601F01CFF6802206087
:1029C00000202071A07103206071E5712146384616
:1029D00001F010FF402721463046276001F00AFF32
:1029E0002146D448276001F005FF280220602146D7
:1029F000404601F0FFFED048C0F89C52CF48C0F8D6
:102A00009052CF48C0F8BC52CE48C0F89C52BDE8A6
:102A1000F0817CB5064614460D46322004F04FF98D
:102A20002946304601F037FFA0B9204609F0A4FC42
:102A300082B201A8009000232146C34807F046FA5D
:102A400002E0012004F03BF92946304601F023FF63
:102A50000028F6D0002020607CBD2DE9F05FB64D47
:102A60004FF00008C5F89C82B44F0124C7F890428B
:102A7000DFF8CCA2CAF8BC42B24EC6F89C42D6F8E7
:102A8000240220B9B1A26102A948FFF7C2FFD5F81C
:102A9000180220B9AEA24021A248FFF7BAFFDFF822
:102AA000B4B2DBF8180220B9ABA24021A148FFF76D
:102AB000B0FFD7F8200268B1C5F89C42B946C7F804
:102AC00090825746CAF8BC42C6F89C42D6F8240207
:102AD00038B10CE0A1A24FF480719348FFF799FF41
:102AE000EAE79FA24FF400719148FFF792FFD5F8F3
:102AF000180220B99BA240218A48FFF78AFFDBF821
:102B00001802DA4620B998A240218A48FFF781FFCF
:102B1000D9F8200270B1C5F89C42CB46C9F8904262
:102B20000020B946C7F8BC02C6F89C42D6F8240279
:102B300038B10CE08DA24FF480717B48FFF769FF3C
:102B4000E9E78BA24FF400717948FFF762FFD5F8EF
:102B5000180220B987A240217248FFF75AFFDAF81D
:102B60001802D04620B984A240217248FFF751FFD5
:102B7000DBF820025F4660B1C5F89C42C7F890427E
:102B8000C9F8BC420020C6F89C02D6F8240238B12D
:102B90000CE07AA24FF480716348FFF73AFFEBE74D
:102BA00077A24FF400716248FFF733FFD5F818029F
:102BB00020B974A240215B48FFF72BFFD8F8180218
:102BC00020B971A240215B48FFF723FFD7F820020C
:102BD000002806D1BDE8F05F6CA24FF48071524826
:102BE00017E7BDE8F09F7FB5002503AECDE900569D
:102BF000002202AB1146544807F021F80400F5D03A
:102C0000BDF808000028F1D05FA1204609F0A0FC23
:102C1000002845D05DA1204609F09AFC002841D04B
:102C200056A1204609F094FC00283DD047A120463B
:102C300009F08EFC88B346A1204609F089FC68B3F0
:102C400045A1204609F084FC48B345A1204609F07F
:102C50007FFC78B343A1204609F07AFC58B342A127
:102C6000204609F075FC38B340A1204609F070FCFD
:102C7000002810D03EA1204609F06AFC28B33DA1EF
:102C8000204609F065FC10B33BA1204609F060FC2A
:102C90000028ABD1092004B070BD07E008E00CE0CB
:102CA0000B20F8E70C20F6E70D20F4E70120F2E70F
:102CB0000420F0E703E004E005E00720EBE7022052
:102CC000E9E70520E7E70820E5E70320E3E706203A
:102CD000E1E77FB5002503AECDE90056002202AB47
:102CE0001146194806F0ABFF0400F5D0BDF8080006
:102CF0000028F1D023A1204609F02AFC60B122A1CE
:102D0000204609F025FC48B120A1204609F020FC0E
:102D10000028E1D10320BEE70120BCE70220BAE78A
:102D2000503A002000040240000002400018024017
:102D30000008024000100240008040420000404273
:102D400000004342000041426C3C00203100000082
:102D50003400000000004242370000002A0000005A
:102D60003200000035000000380000003000000094
:102D7000330000003600000039000000230000008E
:102D80004100000042000000430000004400000039
:102D90002DE9F0410121202001F02FFF0121082021
:102DA00001F02BFF0121102001F027FFFA4C012632
:102DB00000252660257103276771DFF8E083A57180
:102DC000E5712146404601F015FD30032060267173
:102DD0006771A571E5712146F14801F00BFD44F2E0
:102DE0001000206026716771A571E571214640468B
:102DF00001F000FD8020206026716771A571E571EA
:102E00002146E84801F0F6FCE748C0F8B062E74820
:102E1000C0F89062C0F8B862E548C0F89C62BDE8AE
:102E2000F0812DE9F04700250724E04F8246A946AE
:102E3000012606FA04F818EA0A0F02D0C7F8B862A9
:102E400001E0C7F8B892C7F89092012003F018FF8C
:102E5000C7F89062D7F8000210B148EA0500C5B281
:102E6000012003F00DFF641EE3D52846BDE8F0877E
:102E7000D7E70020D5E770B5CB4C0D460021C4F84C
:102E8000B0127E2101EA400004F52C74FFF7C9FF5F
:102E90002846FFF7C6FF0120206070BD10B5C24C68
:102EA0000021C4F8B0127E2101EA400040F0800009
:102EB00004F52C74FFF7B5FFFFF7DBFF012121605C
:102EC00010BD70B50C460546FFF7E8FF40EA040167
:102ED0002846BDE87040CEE770B50C460546FFF7C2
:102EE000DDFF20EA04012846BDE87040C3E710B5C5
:102EF0001420FFF7D3FF800704D10321BDE8104061
:102F00001420DEE710BD03211420E5E770B5A84CBE
:102F10000125C4F89C52284604F5277403F0B0FE3E
:102F200000202060012003F0ABFE2560012003F0AB
:102F3000A7FEBDE870400F2101209CE710B5FFF708
:102F400027FFFFF7E3FF8D212A20FFF794FF3E21A3
:102F50002B20FFF790FF32212D20FFF78CFF00215F
:102F60002C20FFF788FF40211520FFF784FF3D212B
:102F70001120FFF780FF00210120FFF77CFFBDE853
:102F80001040B4E72DE9FF5F0025DDF838B01746A3
:102F90008A4680464FF002092E460C2805D0B8F12B
:102FA0000E0F04D11225102601E07725302645F0BA
:102FB00080010220FFF75FFF80210420FFF78CFFD4
:102FC00080210A20FFF77DFF00210120FFF753FF3A
:102FD000002406E01AF804100920FFF74CFF641CD7
:102FE000A4B2BC42F6D341460120FFF744FFB8F13A
:102FF0000C0F03D180210D20FFF763FF42F2107404
:103000000420FFF74BFF641E24040746240C03D062
:10301000F80701D13742F3D080210D20FFF75CFF84
:103020008CB30620FFF73AFF10F01B0F01D00220EF
:1030300028E0B8F10C0F24D10A20FFF72FFF054636
:103040000C20FFF72BFF10F007004FEAC50104D05A
:1030500008390844ABF8000001E0ABF8001025B1D6
:10306000122D00D91225002409E00125FBE70920D3
:10307000FFF714FF014603980155641CA4B2AC424B
:10308000F5D30020814680210C20FFF7F4FE0021BB
:103090000120FFF7F0FE04B04846BDE8F09F7CB584
:1030A0000C46054607210D20FFF7E5FE257001A817
:1030B00023460090012219460C20FFF763FF18B940
:1030C000BDF80410102900D002207CBD7CB5054657
:1030D000082100240846FFF7FFFE80210E20FFF79D
:1030E000FBFE00210D20FFF7C6FE93202870202054
:1030F000687001A82B460090022219460C20FFF7A9
:1031000041FF06000AD10022A85C521C4440D2B202
:10311000042AF9D3A85CA04200D0022680210E2008
:10312000FFF7CFFE30467CBD2DE9F0410E46074645
:10313000154604210520FFF7CFFE80210A20FFF766
:10314000C0FE00210120FFF796FE002405E0395D56
:103150000920FFF790FE641CA4B2B442F7D3032108
:103160000120FFF788FE4FF47A740520FFF796FEE2
:10317000641E2404240C01D04007F6D52220FFF75A
:103180008DFE28702120FFF789FE6870BDE8F041B0
:10319000002101206FE60000583A0020000C024098
:1031A0000014024000100240008042420080414270
:1031B0000000424210B586B093218DF804107021B2
:1031C0008DF8051000218DF80A1001AA5418435CEF
:1031D000A370445C9DF80A30491C6340C9B28DF865
:1031E0000A300429F2D3072101A8D21DFFF79CFF62
:1031F00008210846FFF770FE04A801AB00900922E1
:1032000019460C20FFF7BEFE18B9BDF810001828AB
:1032100002D0002006B010BD9DF80400FAE730B5DA
:1032200085B08DF804008DF80510002001A9145C0C
:103230000D18401CC0B2AC700628F8D300200C1842
:103240001A5C401CC0B222720428F8D304A8009073
:103250000B460C220E20FFF795FE040004D1082037
:10326000FFF71CFE000700D4022405B0204630BD45
:103270001CB50C46302121706070A21C0221204632
:10328000FFF752FF01A823460090042219460C20A4
:10329000FFF778FE18B9BDF80410902900D002207D
:1032A0001CBD70B588B00C46A0218DF8041001AD8E
:1032B0008DF8050002212846AA1CFFF735FF06AE4F
:1032C00001AB042219460C200096FFF75BFE38BBC9
:1032D000BDF81800042823D19DF8040000F00F0069
:1032E0000A281DD10020215C2954401CC0B210289E
:1032F000F9D305AA102101A8FFF716FF01AB12228E
:1033000019460C200096FFF73DFE48B9BDF818108D
:10331000042905D19DF8041001F00F010A2900D0FD
:10332000022008B070BD0EB550208DF804000020BA
:103330008DF805000DF10602022101A8FFF7F4FE49
:1033400002A801AB0090042219460C20FFF71AFED8
:103350000EBD000010B50121202001F04EFC0948EF
:103360004FF480710024016001210171032141713A
:103370008471C4710146044801F03CFA0348C0F866
:10338000A04210BD603A002000140240008042427A
:103390004448008880061CD54248001D00884249E8
:1033A000C2B20888000414D40888B0F5487F11D24E
:1033B0003E4B00201860088828B93C482438038810
:1033C00043F0010303800888394B0344401C088004
:1033D0001A707047088840F40040088070472DE953
:1033E000F0438146012187B0084601F006FC012127
:1033F000480401F020FC2B4F384601F0D5FCDFF8E3
:10340000B48007220221404601F068FA0722032116
:10341000404601F063FA02208DF814008DF8150083
:1034200000240C268DF81640012504968DF81750BF
:1034300004A9404601F0DEF9ADF80440ADF80840BB
:10344000CDF80090ADF80640ADF80C40ADF80A603C
:103450006946384601F0EDFC0121384601F05AFD7D
:10346000012240F22551384601F0F3FD26208DF867
:1034700018008DF819508DF81A408DF81B5006A8C9
:1034800001F0F9F842F2CF0140F2E73000F02CF8F9
:103490000548048005480021243801F037FF07B0B3
:1034A000BDE8F08300440040683A00202414004046
:1034B00038ED00200000024010B51F4C01212046CD
:1034C00002F049FA00280ED01C48018841F400415E
:1034D00001800121204602F04AFA2046BDE8104052
:1034E000002101F013BF10BD7FB50D460446012138
:1034F000202001F0A0FB01940020ADF800500E4CFC
:10350000ADF80800ADF802006946204601F086FEDD
:1035100001221146204602F00AFA37208DF80C00ED
:1035200001208DF80D008DF80E008DF80F0003A816
:1035300001F0A1F87FBD000000140040683A0020AF
:103540001CB50121084601F058FB402000900020E6
:103550008DF8040002208DF8070003208DF8050087
:103560006946FE4801F046F91CBD10B5FC4C2068C8
:10357000000E00F052FC2068C0F3074000F04DFC44
:103580002088C0F3072000F048FC2078BDE81040F8
:1035900000F043BC7CB50446EF208DF8000001200C
:1035A0008DF80100EE48EF4E0068010E8DF8021014
:1035B000010C8DF80310010A8DF804108DF8050038
:1035C00007208DF8060000258DF8075035800CE0A7
:1035D000012003F074FB3088000406D5358069466D
:1035E000E14808F0B7FE002804D1641E2404240C2E
:1035F000EED100207CBD10B500F017FCFFF7B5FF41
:10360000012000F00AFC032000F017FC012000F06C
:1036100004FC052000F01BFC4FF4FA60FFF7BAFF32
:1036200008B1407A10BDFF2010BD10B5044600F06F
:10363000FCFBFFF79AFF012000F0EFFB042000F0F5
:10364000FCFB022000F0E9FB204600F0E6FBE01D59
:1036500000F0FDFB4FF4FA60FFF79CFF08B1407AE1
:1036600010BDFF2010BD10B500F0DFFBFFF77DFFA0
:10367000012000F0D2FB032000F0DFFB032000F06C
:10368000CCFB072000F0E3FB4FF4FA60FFF782FF6A
:1036900008B1407A10BDFF2010BD2DE9F0411E4653
:1036A00014460D46074600F0C0FBFFF75EFF012001
:1036B00000F0B3FB082000F0C0FB042000F0ADFBDD
:1036C000384600F0AAFB280A00F0A7FBE8B200F099
:1036D000A4FB200A00F0A1FBE0B200F09EFB07EB88
:1036E0001520E9B2084400EB1420E1B208440D3083
:1036F00000F0ADFB4FF4FA60FFF74CFF58B1C27A0F
:10370000837A417A02EB03223280427B007B02EB18
:103710000020708000E0FF210846BDE8F08110B570
:1037200000F083FBFFF721FF012000F076FB032070
:1037300000F083FB052000F070FB092000F087FB00
:103740004FF4FA60FFF726FF08B1407A10BDFF2062
:1037500010BD70B50C46054600F067FBFFF705FF8E
:10376000012000F05AFB062000F067FB062000F065
:1037700054FB284600F051FB200A00F04EFBE0B25B
:1037800000F04BFB05EB1420E1B208440D3000F0D3
:103790005EFB4FF4FA60FFF7FDFE08B1407A70BDA2
:1037A000FF2070BD70B50C46054600F03EFBFFF7EC
:1037B000DCFE012000F031FB072000F03EFB0C2076
:1037C00000F02BFB2E0A304600F027FBE8B200F099
:1037D00024FB200A00F021FBE0B200F01EFB56FAA9
:1037E00085F000EB1420E1B20844143000F02FFB08
:1037F0004FF4FA60FFF7CEFE08B1407A70BDFF20AB
:1038000070BD10B500F011FBFFF7AFFE012000F016
:1038100004FB032000F011FB0D2000F0FEFA112044
:1038200000F015FB4FF4FA60FFF7B4FE08B1407AE0
:1038300010BDFF2010BD21283CD2DFE800F011139D
:103840001517191B1D1F212325273B3B3B3B272910
:103850003B3B3B2B3B3B2D2F3133353B3B3739003B
:1038600042A0704742A0704745A0704749A07047EA
:103870004DA0704754A070475BA0704761A070478F
:103880006EA0704770A0704773A0704776A0704715
:1038900079A070477CA0704784A0704787A07047CC
:1038A00089A070478CA0704790A0704794A0704783
:1038B00096A0704798A0704770B50C46054600F07A
:1038C000B4FAFFF752FE012000F0A7FA052000F03D
:1038D000B4FA0E2000F0A1FA284600F09EFA204625
:1038E00000F09BFA2819143000F0B1FA4FF4FA6096
:1038F000FFF750FE10B1447A54B100E0FF24204697
:10390000FFF799FF014689A008F042FB204670BDF1
:1039100088A008F03DFBF9E770B5044600F085FA91
:10392000FFF723FE012000F078FA032000F085FA6B
:103930000F2000F072FA132000F089FA4FF47A7029
:10394000FFF728FE40B1C17B827B457A01EB022163
:1039500089B22180427CF7E008E1000000000240CB
:103960006C3A0020683A002038ED00204F4B0000F0
:10397000CAFDBEDDB0FCBDD3CAD5B4EDCEF30000A8
:10398000B4ABB8D0C6F7C9CFC3BBD3D0CAD6D6B8AC
:1039900000000000C2BCC8EBD6B8CEC6CDBCCFF18B
:1039A000CAA7B0DC00000000D6B8CEC6CDBCCFF1AF
:1039B000CCABB8C9A1A2CCABB5ADB6F8C9FAB2BB15
:1039C000B3C9CCD8D5F70000D6B8CEC6CDBCCFF1A0
:1039D000CCABCAAAA1A2CCABBAFDB6F8C9FAB2BBAD
:1039E000B3C9CCD8D5F70000D6B8CEC6CDBCCFF180
:1039F000CCABC2D2B6F8C9FAB2BBB3C9CCD8D5F7F2
:103A000000000000D6B8CEC6CDBCCFF1D5FDB3A323
:103A1000A3ACB5ABCCD8D5F7B5E3CCABC9D9A3A88B
:103A2000BBF2C3E6BBFDCCABD0A1A3A9B6F8C9FAE3
:103A3000B2BBB3C9CCD8D5F700000000D6B8CEC60B
:103A4000B2BBC6A5C5E40000C3BBCBD1CBF7B5BDA7
:103A5000D6B8CEC600000000CCD8D5F7BACFB2A2F7
:103A6000CAA7B0DC00000000C9BEB3FDC4A3B0E526
:103A7000CAA7B0DC00000000C7E5BFD5D6B8CEC6E7
:103A8000BFE2CAA7B0DC0000BBBAB3E5C7F8C4DA2E
:103A9000C3BBD3D0D3D0D0A7D4ADCABCCDBCB6F8AD
:103AA000C9FAB2BBB3C9CDBCCFF10000B6C1D0B426
:103AB00020464C41534820B3F6B4ED00CEB4B6A82E
:103AC000D2E5B4EDCEF30000CEDED0A7BCC4B4E6A0
:103AD000C6F7BAC500000000BCC4B4E6C6F7C9E822
:103AE000B6A8C4DAC8DDB4EDCEF30000BCC7CAC2C4
:103AF000B1BED2B3C2EBD6B8B6A8B4EDCEF30000D7
:103B0000D6B8CEC6BFE2C2FA00000000B5D8D6B71C
:103B1000B4EDCEF300000000C4A3BFE9B7B5BBD835
:103B2000C8B7C8CFC2EBD3D0CEF300000D0A2573BF
:103B3000000000000D0AC9E8D6C3B2CECAFDB3C961
:103B4000B9A6A3A100000000A270427D837C067D7F
:103B500002EB0362C37C1B0403EB06231A4462607E
:103B6000C27D2272407E60725DB100E0FF25284672
:103B7000FFF761FE0146AFF24C0008F009FA284653
:103B800070BDB7A008F004FAA178BBA008F000FA55
:103B9000BDA0616808F0FCF9607A4FF4165110FB83
:103BA00001F1BCA0E9E770B5044600F03EF9FFF76B
:103BB000DCFC012000F031F9072000F03EF915206F
:103BC00000F02BF9200E00F028F9C4F30740054659
:103BD00000F023F9C4F30720064600F01EF9E0B216
:103BE00000F01BF905EB14603044E1B208441D30CD
:103BF00000F02DF9AA4E4FF4FA603460FFF7CAFCCA
:103C000008B1457A00E0FF2534604DB12846FFF742
:103C100012FE0146AFF2EC0008F0BAF9284670BD7A
:103C2000A0A008F0B5F9F9E72DE9F0410E460746E6
:103C300000F0FBF8FFF799FC012000F0EEF82420DB
:103C400000F0FBF8182000F0E8F8384600F0E5F83E
:103C50000024305D00F0E1F8305D641C2844E4B2DB
:103C600085B2202CF5D378193D3080B200F0EFF802
:103C70004FF4FA60FFF78EFC08B1407A4DE5FF2063
:103C80004BE570B50C46054600F0CFF8FFF76DFC2C
:103C9000012000F0C2F8042000F0CFF8192000F055
:103CA000BCF8284600F0B9F805F11E0000F0CFF886
:103CB0004FF4FA60FFF76EFC48B1417A0022831896
:103CC0009B7AA354521CD2B2202AF8D300E0FF21E1
:103CD000084670BD2DE9F0411E4614460D460746C4
:103CE00000F0A3F8FFF741FC012000F096F808204F
:103CF00000F0A3F81B2000F090F8384600F08DF893
:103D0000280A00F08AF8E8B200F087F8200A00F0EC
:103D100084F8E0B200F081F807EB1520E9B208441E
:103D200000EB1420E1B20844243000F090F84FF486
:103D3000FA60FFF72FFC58B1C27A837A417A02EB1E
:103D400003223280427B007B02EB0020708000E087
:103D5000FF210846E1E470B5054600F066F8FFF77C
:103D600004FC012000F059F8032000F066F81D2043
:103D700000F053F8212000F06AF84FF4FA60FFF7E2
:103D800009FC38B1C17A827A447A01EB0221298098
:103D90005CB100E0FF242046FFF74DFD0146AFF285
:103DA000742008F0F5F8204670BDC17A807A01EBE6
:103DB000002141A0F5E770B5044600F036F8FFF7A2
:103DC000D4FB012000F029F8002000F026F80020A4
:103DD00000F023F8C82002F072FF3C4A108800046B
:103DE0000BD53B4900200B78EF2B05D14B78012BED
:103DF00002D18B79072B02D01080012070BD4B7946
:103E00008D7803EB0563CD7809792D0405EB01214D
:103E1000194421601080002070BD2E490A88520686
:103E2000FCD52C49091D0880704710B5EF20FFF71D
:103E3000F4FFBDE810400120EFE710B50446C0F3E1
:103E40000720FFF7EAFFE0B2BDE81040E5E710B554
:103E50000446000AFFF7E1FFE0B2BDE81040DCE7EE
:103E60000D0AC4A3BFE9D7EEB4F3D6B8CEC6C8DDF9
:103E7000C1BF3D25640000000D0AB6D4B1C8B5C865
:103E8000BCB63D25640000000D0AB5D8D6B73D2567
:103E9000780000000D0AB2A8CCD8C2CA3D25640043
:103EA0006C3A00200D0AC9E8D6C3B5D8D6B7B3C955
:103EB000B9A6A3A1000000000D0AD3D0D0A7D6B8A0
:103EC000CEC6B8F6CAFD3D2564000000683A002061
:103ED00038ED00200044004010B5FFF7ACFC01466F
:103EE000BDE81040FDA008F053B870B586B00024BE
:103EF00004AE0294CDE90046002203AB1146F94816
:103F000005F09DFE0500F5D0BDF80C000028F1D0AD
:103F1000F5A1284608F01CFBC0B1F4A1284608F022
:103F200017FB18B3F2A1284608F012FB08B302A849
:103F300008F022FA032803D2294602A808F03BFA27
:103F400002AA03212620FEF741FAD3E7E9A20321C2
:103F50002620FEF73BFA02A808F00EFA02A9084450
:103F600000F8014CE6A008F013F8E9E7E1A202949A
:103F7000E7E7E6A008F00CF802A808F0D7F906B0C9
:103F800080B270BD2DE9F84F0024E24EA0464FF0FC
:103F900001094FF4966A052C41D2DFE804F0034191
:103FA0008FEBFD006D1CEDB2FEF78BF93122032182
:103FB0001C20FEF723FA322203212E20FEF71EFAE0
:103FC000332203214020FEF719FA34220321522024
:103FD000FEF714FAFFF70FFB00286CD1C6F8A09289
:103FE0000120FFF722FBC6F8A082002863D1FEF76C
:103FF00068F9332203211C20FEF700FA3422032142
:104000002E20FEF7FBF9352203214020FEF7F6F9BA
:10401000362203215220FEF7F1F90025012485E024
:104020006D1CEDB2FEF74DF9372203210020FEF79B
:10403000E5F9382203211220FEF7E0F939220321A5
:104040002420FEF7DBF93A2203213620FEF7D6F9C9
:104050003B2203214820FEF7D1F9332203215A20C5
:10406000FEF7CCF9342203216C20FEF7C7F9FFF7E5
:10407000C2FA00BBC6F8A0920220FFF7D6FAC6F833
:10408000A082C0B9FEF71DF9332203211C20FEF7E0
:10409000B5F9342203212E20FEF7B0F93522032191
:1040A0004020FEF7ABF9362203215220FEF7A6F995
:1040B000002502243AE0FFF70FFF37E0FEF701F991
:1040C0003C2203211C20FEF799F93D2203212E20DA
:1040D000FEF794F93E2203214020FEF78FF93F229C
:1040E00003215220FEF78AF9FFF7BDFA040029D018
:1040F000FEF7E7F83E2203211C20FEF77FF93F225E
:1041000003212E20FEF77AF9422203214020FEF7F8
:1041100075F9432203215220FEF770F92046FFF77C
:10412000DBFE00252C46504602F0C9FD4FF4C87056
:1041300002F0C5FD052D7FF42EAFFEF7C2F800207A
:10414000BDE8F88FFEF7BDF83E2203211C20FEF7E4
:1041500055F93F2203212E20FEF750F9402203217A
:104160001046FEF74BF9412203215220FEF746F993
:104170000324D8E7FEF7A5F8442203210A20FEF71E
:104180003DF9452203211C20FEF738F94622032180
:104190002E20FEF733F900E037E0472203214020CC
:1041A000FEF72CF9482203215220FEF727F9492275
:1041B00003216420FEF722F9FFF7B1FA18B10024B9
:1041C000FFF78AFEAFE7FEF77CF8462203210A20BC
:1041D000FEF714F9472203211C20FEF70FF94822AD
:1041E00003212E20FEF70AF9492203214020FEF781
:1041F00005F9402203215220FEF700F94122032154
:104200006420FEF7FBF804248DE7FEF75AF84A22F3
:1042100000210A20FEF7F2F84B2200211C20FEF7B5
:10422000EDF84C2200212E20FEF7E8F84D22002167
:104230004020FEF7E3F84E2200215220FEF7DEF880
:1042400035A200216420FEF7C1F829A200216C20CC
:10425000FEF7BCF831A206210020FEF7B7F824A231
:1042600006215120FEF7B2F84F2206215A20FEF710
:10427000C5F8502206216C20FEF7C0F8294CFFF744
:1042800034FE0746014628A007F082FE2088B84287
:10429000F5D939460220FFF75CFA08B100240AE795
:1042A000FEF70FF8512203210A20FEF7A7F8522249
:1042B00003211C20FEF7A2F8532203212E20FEF733
:1042C0009DF8542203214020FEF798F8552203213F
:1042D0005220FEF793F85622032129E025730D0A98
:1042E000000000006C3C0020420000004300000081
:1042F000440000002020202020202020202000003A
:104300006275663A25730D0A00000000C8B7B6A8AA
:104310000D0A0000008042424900000049443C333D
:104320003030000058F0002049443A25640D0A005E
:104330006420FEF763F8A048FFF70DFD5322062125
:104340000F20FEF75BF8542206212120FEF756F8D5
:10435000572206213320FEF751F858220621452026
:10436000FEF74CF8102000909348052306210288A0
:104370005720FDF7FAFF40F2DC5002F0A0FCFDF7F9
:10438000A0FF0120DCE608B5FFF735F948B90120A8
:10439000FFF74BF938B1FFF79FFD4FF4167002F0AD
:1043A0008EFC002008BD85486B4600210288012054
:1043B000FFF790FC20B182A007F0EAFD012008BDC4
:1043C000BDF80220BDF8001081A007F0E1FDE4E790
:1043D000F8B5FDF776FF592200210A20FEF70EF806
:1043E0005A2200211C20FEF709F85B2200212E2012
:1043F000FEF704F85C2200214020FDF7FFFF5D225C
:1044000000215220FDF7FAFFAFF2F40200216420F0
:10441000FDF7DCFFAFF2281200216C20FDF7D6FF7C
:10442000AFF2081206210020FDF7D0FFAFF24012D4
:1044300006215120FDF7CAFF5E2206215A20FDF712
:10444000DDFF5F2206216C20FDF7D8FF322002F04D
:1044500036FC5948FFF77FFC574C2588FFF745FD90
:10446000B0F57F4F05D00121FFF79CF920B1002066
:10447000F8BDFFF7C6F9F9E74F48FFF76CFC208855
:1044800029464FF47A7710267D00814249D0FDF706
:1044900018FF5C2203210A20FDF7B0FF5D220321F3
:1044A0001C20FDF7ABFF532203212E20FDF7A6FFB2
:1044B000542203214020FDF7A1FF55220321522061
:1044C000FDF79CFF562203216420FDF797FF384635
:1044D00002F0F5FBFDF7F5FE3748FFF73CFC5322F1
:1044E00004211420FDF78AFF542204212620FDF721
:1044F00085FF572204213820FDF780FF5822042130
:104500004A20FDF77BFF00960323228804215A20CE
:10451000FDF72BFF284602F0D2FBFDF7D2FE01206B
:10452000F8BDFDF7CEFE5C2203210A20FDF766FFF1
:104530005D2203211C20FDF761FF532203212E2061
:10454000FDF75CFF542203214020FDF757FF422274
:1045500003215220FDF752FF432203216420FDF77F
:104560004DFF384602F0ABFBFDF7ABFE1248FFF7FC
:10457000F2FB532204211420FDF740FF54220421B2
:104580002620FDF73BFF572204213820FDF736FF98
:10459000582204214A20FDF731FF00960323228888
:1045A00004215A20FDF7E1FE284602F088FBFDF7C2
:1045B00088FE0220F8BD0000703A002058F000206C
:1045C000C6A5C5E4CAA7B0DCA3A10D0A000000007F
:1045D000D6B8CEC6BFE2C6A5C5E4B3C9B9A6A3A1E5
:1045E0002C49443A25642020C6A5C5E4B5C3B7D6F6
:1045F0003A25640D0A00000010B50121102000F0DA
:10460000FCFA084820210160012101710321417158
:1046100000218171C1710146BDE81040024800F0DF
:10462000E9B80000743A00200010024009488047B1
:1046300009480047FEE7FEE7FEE7FEE7FEE7FEE784
:10464000FEE7FEE7FEE7FEE704480549054A064B9C
:10465000704700009F20000889010008D80A012047
:10466000D86A0120D82A0120D82A012028490843E5
:1046700028490860704730B50F23C27801780125BA
:10468000FAB1244A126801F1E02102F4E062C2F5B5
:10469000E062C2F30722C2F10404D3404278A24090
:1046A00084781C401443220181F80024007800F033
:1046B0001F018D404009800000F1E020C0F800514A
:1046C00030BD01F01F0085404809800000F1E02066
:1046D000C0F8805130BD104A114001430D48001F01
:1046E000016070470B4A121D0029116801D0014377
:1046F00000E08143116070474FF0E0210428086911
:1047000003D020F004000861704740F00400FAE78D
:104710000000FA050CED00E080FFFF1F774910B59F
:10472000884206D10121084600F099FA00210120B3
:104730005BE07349884206D10121022000F08FFA24
:104740000021022051E06F49884206D10121042056
:1047500000F085FA0021042047E06B49884206D129
:104760000121082000F07BFA002108203DE0674984
:10477000884206D10121102000F071FA002110209A
:1047800033E06349884206D10121202000F067FA16
:104790000021202029E05F49884206D101214020E4
:1047A00000F05DFA002140201FE05B49884206D1FD
:1047B0000121802000F053FA0021802015E05749A4
:1047C000884202D1012184150AE05549884202D16C
:1047D0000121441504E0534988420AD101210415FE
:1047E000204600F03CFA00212046BDE8104000F0D1
:1047F00036BA10BDF0B5002201274FF0030C0B684C
:1048000007FA02F52B40AB422CD1066853000CFA94
:1048100003F4A64306600E79D0F800E09E4046EA15
:104820000E0606600E79012E01D0022E12D1866886
:10483000A64386604E79D0F808E09E4046EA0E0610
:1048400086604668AE43466045688E799640B6B24B
:1048500035434560C568A543C560CC799C40C368B5
:104860001C43C460521C102AC9D3F0BD4FF6FF711F
:1048700001600021017141718171C171704708B5FA
:1048800041F480320092C261C1610099C161C16985
:10489000C069009008BD0246002012690A4200D09B
:1048A00001207047006980B27047024600205269BB
:1048B0000A4200D001207047406980B270470183EE
:1048C0007047418370470AB1018370474183704745
:1048D0004161704742694A40426170474B07DB0EB5
:1048E0009A40C90810B500EB8100016A0F249C4072
:1048F000A1430162016A1143016210BD0000024040
:104900000004024000080240000C02400010024077
:104910000014024000180240001C02400020024027
:104920000024024000280240F848016841F00101DB
:104930000160F64A0021083211600268F44B1A4007
:104940000260031DF34A1A60F04BF34A84331A6085
:10495000F04A103A1B1D1A60026822F4802202609D
:10496000EA480C300160181D01607047E7490022D9
:10497000891C0A70087070470246002051090129FD
:104980000CD002290CD0E1497431096802F01F02F1
:10499000012393400B4200D001207047DB49F4E72C
:1049A000DA497031F1E718B500204FF4A0440090C7
:1049B0003120FFF7E1FF0099491C0091A14201D08D
:1049C0000028F5D03120FFF7D7FF002800D00120C4
:1049D00018BDCE4A116821F0F80141EAC00010600C
:1049E0007047CE4908607047C849002270310A708C
:1049F0000A70012802D0042801D1052008707047F0
:104A0000C7490860704741EA82115A0810B5C54B82
:104A1000029C03EB02421143014341EA0460BB499B
:104A2000091D086010BDBD4908667047800140EA55
:104A30000170B649843108607047B849886670478C
:104A4000800140EA0160B14940EA027088310860A3
:104A50007047B24908677047B049C8647047AB4BAC
:104A600008331A68084322F0EC621043186070475C
:104A7000A64B08331A68084322F0784210431860A6
:104A80007047A24A0832116821F003010143116006
:104A900070479E480830006800F00C0070479B4A41
:104AA0000832116821F0F001014311607047974A04
:104AB0000832116821F4E051014311607047934AB4
:104AC0000832116821F4604141EAC000106070476B
:104AD00070B58E4B08331968934C11F00C0104D05B
:104AE0006610042903D0082903D004601BE0066087
:104AF00019E0864A121D1168C1F38055116801F052
:104B00003F0115B1B6FBF1F101E0B4FBF1F114681E
:104B10001268C4F388146143C2F30142521C52006C
:104B2000B1FBF2F1016019680F2202EA11117F4A0C
:104B3000545C0168E14041601C68072505EA942443
:104B4000145D21FA04F484601B6805EA5333D25CD7
:104B5000D140C16070BDC0F30121032908D16B4B66
:104B600008331968724A21F4F81102400A431A60A6
:104B7000664970310A68C0F30B0002430A6070474F
:104B80006749443908607047654940390860704793
:104B90006249C1F85C0170475C4A8C321168401E62
:104BA00021F01F01014311607047584A8C3211688F
:104BB0006FF0FF0321F4F85103EB0020084310606D
:104BC0007047524A8C32116821F440110143116040
:104BD00070474E4A8C32116821F440010143116044
:104BE00070474A4A8C32116821F440310143116008
:104BF00070475049C1F8E0017047444A30320029FB
:104C0000116801D0014300E08143116070473F4AC1
:104C100034320029116801D0014300E08143116062
:104C200070473A4A38320029116801D0014300E048
:104C3000814311607047354A40320029116801D024
:104C4000014300E0814311607047304A443200293B
:104C5000116801D0014300E08143116070472B4A85
:104C600010320029116801D0014300E08143116036
:104C70007047264A14320029116801D0014300E030
:104C8000814311607047214A18320029116801D010
:104C9000014300E08143116070471C4A2032002923
:104CA000116801D0014300E0814311607047174A49
:104CB00024320029116801D0014300E081431160D2
:104CC0007047124A50320029116801D0014300E0B8
:104CD0008143116070470D4A54320029116801D098
:104CE000014300E0814311607047084A58320029AF
:104CF000116801D0014300E0814311607047034A0D
:104D000060320029116817D0014316E000380240D4
:104D1000FFFFF6EA10300024003000200000474278
:104D2000800E47420000FFFF0024F4007C3A002080
:104D3000FFFCFF0F00104742814311607047194A82
:104D40000029116801D0014300E0814311607047E0
:104D500014490C310128086803D020F008000860CD
:104D6000704740F00800FAE70E4A573A00291178D8
:104D700001D0014300E081431170704709481030B1
:104D8000016841F08071016070470146054A0020CA
:104D9000583A12680A4200D001207047014956393A
:104DA0000870704764380240CD4910B5884206D17A
:104DB00001211020FFF77BFF0021102020E0C949CE
:104DC000884202D101214C0429E0C749884202D11E
:104DD00001218C0423E0C549884202D10121CC0481
:104DE0001DE0C349884202D101210C0517E0C149E9
:104DF000884209D101212020FFF759FF00212020FE
:104E0000BDE81040FFF753BFBB49884202D10121E2
:104E10008C0704E0B94988420AD1012144052046A3
:104E2000FFF73BFF2046BDE810400021FFF735BFEC
:104E300010BD7FB50446008A0D46C98820F4405055
:104E400001432182A08941F20C618843A9882A8903
:104E500011436A8902431143A181A08A20F4407161
:104E6000A8890843A0826846FFF732FE9C48844226
:104E700002D0A048844201D1039800E00298A189A1
:104E8000090400EBC00101EB0010296801D54900BD
:104E900000E08900B0FBF1F06422B0FBF2F10901FF
:104EA0000B096FF018056B4300EB8300A3891D0409
:104EB0004FF0320306D503EBC000B0FBF2F000F078
:104EC000070005E003EB0010B0FBF2F000F00F006C
:104ED000084320817FBD4FF416510160002181807D
:104EE000C18001810C2242818181704710B5028A04
:104EF0004C8822F470630A8822438C88C9880C434A
:104F000022431A43028210BD00210180418081802A
:104F1000C18070470029818902D041F4005101E02D
:104F200021F4005181817047028B02F47F42028399
:104F3000028B0A43028370470029818902D041F421
:104F4000004101E0C1F30E01818170470029818A8F
:104F500002D041F4006101E021F4006181827047D8
:104F6000C1F30801818070478088C0F30800704752
:104F7000028A22F00F020282028A0A4302827047EA
:104F80000029818902D041F0020101E021F00201F3
:104F900081817047828922F40062828182890A437A
:104FA00082817047028A22F020020282028A0A432A
:104FB000028270470029018A02D041F4804101E059
:104FC00021F4804101827047818941F00101818192
:104FD00070470029818A02D041F0080101E021F0E8
:104FE000080181827047028BD2B20283028B42EAAF
:104FF0000121018370470029818A02D041F02001FC
:1050000001E021F02001818270470029818A02D0CD
:1050100041F0100101E021F0100181827047828A85
:1050200022F004028282828A0A4382827047002927
:10503000818A02D041F0020101E021F00201818267
:105040007047002A828A01D00A4300E08A438282A4
:10505000704710B5C1F3421301F01F040121A140B4
:10506000012B07D0022B07D01430002A026805D08C
:105070000A4304E00C30F8E71030F6E78A43026098
:1050800010BD0246002012880A4200D0012070475D
:10509000C9430180704770B501F01F050126002447
:1050A000C1F3421306FA05F2012B0FD0022B0FD0E9
:1050B000838A4FEA11210088134206FA01F600EABA
:1050C000060001D000B10124204670BD8389F0E7BD
:1050D000038AEEE70A0A01219140C9430180704723
:1050E000001001400044004000480040004C0040D7
:1050F000005000400014014000780040007C004057
:10510000FE4910B5884206D101210846FFF7CFFDC0
:10511000002101205BE0B0F1804F09D0F8498842BE
:105120000DD101210220FFF7B8FD0021022070E01F
:1051300001210846FFF7B1FD0021012069E0F14996
:10514000884206D101210420FFF7A7FD0021042099
:105150005FE0ED49884206D101210820FFF79DFD5F
:105160000021082055E0E949884206D1012110209C
:10517000FFF793FD002110204BE0E549884206D15E
:1051800001212020FFF789FD0021202041E0E14995
:10519000884206D101210220FFF789FD002102206B
:1051A00015E0DD49884202D101210C040AE0DB4907
:1051B000884202D101214C0404E0D94988420AD135
:1051C00001218C042046FFF772FD00212046BDE836
:1051D0001040FFF76CBDD349884206D10121402021
:1051E000FFF75BFD0021402013E0CF49884206D144
:1051F00001218020FFF751FD0021802009E0CB49EB
:1052000088420AD1841501212046FFF746FD00217E
:105210002046BDE81040FFF740BD10BD30B5028804
:10522000B64CBC4DA0420DD0A8420BD0B0F1804F7F
:1052300008D0B34B984205D0B24B984202D0B24B43
:10524000984203D122F070034A881A43AF4B984228
:1052500006D0AF4B984203D022F440730A891A4318
:1052600002804A68C2620A880285A04201D0A84230
:1052700001D1897A01860121818230BD4FF0FF3151
:105280004160002101800181418081727047018568
:1052900082827047028822F070020A4302807047BF
:1052A00041627047C1627047406A7047008D704725
:1052B0000029018802D041F0020101E021F0020141
:1052C000018070470029018802D041F0040101E00B
:1052D00021F00401018070470029018802D041F0CB
:1052E000800101E021F0800101807047028822F0F6
:1052F0000802028002880A4302807047028822F472
:105300004072028002880A430280704700290188A7
:1053100002D041F0010101E021F00101018070475C
:1053200030B5028C22F001020284028C8388048B47
:1053300022F0020224F073050C882C438D8915435A
:105340004A882A436D4DA84202D0724DA8420DD121
:1053500022F00805CA8923F440732A4322F0040589
:105360008A882A430D8A1D434B8A2B4383800483FA
:1053700089684163028430BD70B5028C22F010024E
:105380000284028C8388048B0D8824F4E6464FF651
:10539000FF7404EA052535438E8922F0200204EAD1
:1053A000061616434A8804EA02123243534EB042AC
:1053B00002D0584EB04215D122F08006CA8923F49B
:1053C000406304EA0212324322F040068A8804EA6B
:1053D000021232430E8A04EA86061E434B8A04EA0E
:1053E000830333438380058389688163028470BDAE
:1053F00070B5028C22F480720284028C8388848BC4
:105400000D8824F0730425438E894FF6FF7422F42F
:10541000007204EA062616434A8804EA022232434E
:10542000364EB04202D03B4EB04215D122F4006657
:10543000CA8923F4405304EA0222324322F48066EC
:105440008A8804EA022232430E8A04EA06161E43C0
:105450004B8A04EA03133343838085838968C163DD
:10546000028470BD70B5028C22F480520284058CD7
:105470008288838B0C8823F4E6464FF6FF7303EA99
:105480000424344325F400568D8903EA0535354359
:105490004E8803EA06362E43184DA84202D01D4D11
:1054A000A84205D122F480450A8A03EA82122A43DF
:1054B0008280848389680164068470BD0021018034
:1054C0004180818081608181C181018241827047F8
:1054D00030B50124058C00F118038C40A5430584E8
:1054E00031B308292CD0091FC1F34E0018440168BC
:1054F00048F6FF731940016001681AE0000001409E
:105500000004004000080040000C00400010004073
:1055100000140040000401400040014000440140EC
:105520000048014000180040001C004000200040DE
:1055300006E04FF6FF7303EA02221143016030BD1B
:1055400003EB510001684FF68F7319400160016849
:10555000F3E74163704781637047C163704701643B
:105560007047028B22F070020A4302837047028B5D
:105570004FF6FF7322F4E04203EA01211143018355
:105580007047828B22F070020A4382837047828BBD
:105590004FF6FF7322F4E04203EA012111438183B5
:1055A0007047028B22F008020A4302837047028B85
:1055B0004FF6FF7322F4006203EA012111430183D5
:1055C0007047828B22F008020A4382837047828BE5
:1055D0004FF6FF7322F4006203EA01211143818335
:1055E0007047028B22F004020A4302837047028B49
:1055F0004FF6FF7322F4806203EA01211143018315
:105600007047828B22F004020A4382837047828BA8
:105610004FF6FF7322F4806203EA01211143818374
:105620007047028B22F080020A4302837047028B8C
:105630004FF6FF73C2F30E0203EA01211143018307
:105640007047828B22F080020A4382837047828BEC
:105650004FF6FF73C2F30E0203EA01211143818367
:105660007047028C22F002020A4302847047028CC7
:1056700022F008020A4302847047028C4FF6FF733F
:1056800022F0200203EA0111114301847047028CC9
:105690004FF6FF7322F0800203EA011111430184E7
:1056A0007047028C4FF6FF7322F4007203EA012167
:1056B000114301847047028C4FF6FF7322F400629D
:1056C00003EA0121114301847047028C4FF6FF73F6
:1056D00022F4005203EA013111430184704710B5EE
:1056E0000123048C8B409C430484038C8A40134325
:1056F000038410BD10B50423048C8B409C430484A8
:10570000038C8A401343038410BD828B22F44062D1
:105710008283828B4FF6FF7303EA01210A4382835F
:105720007047828B22F00C028283828B0A43828331
:105730007047028B22F440620283028B4FF6FF73A4
:1057400003EA01210A4302837047F0B5048C24F078
:1057500010040484078B068C4FF6FF7404EA0115CD
:1057600027F4734704EA0331394304EA02220A4367
:1057700026F0A001294341F0100102830184F0BD0D
:10578000028B22F00C020283028B0A4302837047D1
:105790002DE9F0410C460E884988A28823890546E8
:1057A0000EB3042E26D0082E2E8C4FF6FF7028D074
:1057B00026F480562E84AF8B2E8C00EA022200EA5B
:1057C000013127F473473A4300EA0330104326F4CB
:1057D00020420A4342F48051A8832984E188284664
:1057E000BDE8F04191E700F062F9E1882846BDE8A4
:1057F000F041C5E7FFF7A9FFE1882846BDE8F04181
:1058000097E726F480762E84AF8B2E8C00EA012158
:1058100000EA0310104327F0F307384326F4206210
:105820000A4342F48071A8832984E1882846BDE8B0
:10583000F04176E700210180418001228280C18011
:10584000018170472DE9F0410C4600264988074642
:10585000012501B90226A288012A00D1022520884B
:1058600023890028384610D0FFF76FFFE1883846BB
:10587000FFF75FFF23892A463146384600F017F9C3
:10588000E1883846BDE8F0417AE700F010F9E18898
:105890003846FFF775FF23892A4631463846FFF719
:1058A00054FFE1883846BDE8F04142E7406B70475D
:1058B000806B7047C06B7047006C704710B50A88EA
:1058C0004B88CC881A438B8823431A430B891A438D
:1058D0004B8989891A430A43A0F8442010BD00214E
:1058E000018041808180C180018141818181704737
:1058F000002930F8441F02D041F4004101E0C1F317
:105900000E01018070470029818802D041F0040116
:1059100001E021F00401818070470029818802D0D4
:1059200041F0010101E021F0010181807047002A6E
:10593000828901D00A4300E08A43828170478182D4
:10594000704702460020128A0A4200D001207047A8
:10595000C9430182704702460020138A92890B4294
:1059600002EA010202D0002A00D001207047C94398
:10597000018270471143A0F848107047002A8289BD
:1059800001D00A4300E08A43828170470029818860
:1059900002D041F0080101E021F008018180704748
:1059A000018921F0070101817047028922F070020C
:1059B0000A430281704700B50346FFF7F6FF1889D6
:1059C00040F00700188100BD70B516460D466029ED
:1059D00004464FF0010231460AD000F068F829462B
:1059E0002046FFF7E2FF208940F00700208170BDCC
:1059F000FFF7ABFEF3E730B504894FF6FF7505EA14
:105A000003231343E4B20B432343038130BD10B59A
:105A10000446FFF7F0FF208940F07700208110BD99
:105A200010B50446FFF7E7FF208940F4804020814D
:105A300010BD828822F07002828082880A438280B0
:105A40007047028922F00702028102890A4302811B
:105A50007047028922F08002028102890A43028192
:105A6000704770B50589048B068C25F007050D433A
:105A70004FF6FC410C4040F201110C434FF6FF7110
:105A800001EA031126F02206114331430581048304
:105A9000018470BD0029818802D041F0800101E0BD
:105AA00021F0800181807047A0F85010704770B5D8
:105AB000048C24F001040484058B048C4FF6FF76DB
:105AC00006EA0313134325F0F3052B4324F00A02DF
:105AD0000A4342F001010383018470BD18B5002020
